{
  "contractName": "MyNFTProject",
  "abi": [
    {
      "inputs": [
        {
          "internalType": "string",
          "name": "_initBaseURI",
          "type": "string"
        }
      ],
      "stateMutability": "nonpayable",
      "type": "constructor"
    },
    {
      "anonymous": false,
      "inputs": [
        {
          "indexed": true,
          "internalType": "address",
          "name": "owner",
          "type": "address"
        },
        {
          "indexed": true,
          "internalType": "address",
          "name": "approved",
          "type": "address"
        },
        {
          "indexed": true,
          "internalType": "uint256",
          "name": "tokenId",
          "type": "uint256"
        }
      ],
      "name": "Approval",
      "type": "event"
    },
    {
      "anonymous": false,
      "inputs": [
        {
          "indexed": true,
          "internalType": "address",
          "name": "owner",
          "type": "address"
        },
        {
          "indexed": true,
          "internalType": "address",
          "name": "operator",
          "type": "address"
        },
        {
          "indexed": false,
          "internalType": "bool",
          "name": "approved",
          "type": "bool"
        }
      ],
      "name": "ApprovalForAll",
      "type": "event"
    },
    {
      "anonymous": false,
      "inputs": [
        {
          "indexed": true,
          "internalType": "address",
          "name": "previousOwner",
          "type": "address"
        },
        {
          "indexed": true,
          "internalType": "address",
          "name": "newOwner",
          "type": "address"
        }
      ],
      "name": "OwnershipTransferred",
      "type": "event"
    },
    {
      "anonymous": false,
      "inputs": [
        {
          "indexed": false,
          "internalType": "address",
          "name": "account",
          "type": "address"
        }
      ],
      "name": "Paused",
      "type": "event"
    },
    {
      "anonymous": false,
      "inputs": [
        {
          "indexed": true,
          "internalType": "address",
          "name": "from",
          "type": "address"
        },
        {
          "indexed": true,
          "internalType": "address",
          "name": "to",
          "type": "address"
        },
        {
          "indexed": true,
          "internalType": "uint256",
          "name": "tokenId",
          "type": "uint256"
        }
      ],
      "name": "Transfer",
      "type": "event"
    },
    {
      "anonymous": false,
      "inputs": [
        {
          "indexed": false,
          "internalType": "address",
          "name": "account",
          "type": "address"
        }
      ],
      "name": "Unpaused",
      "type": "event"
    },
    {
      "inputs": [
        {
          "internalType": "address",
          "name": "to",
          "type": "address"
        },
        {
          "internalType": "uint256",
          "name": "tokenId",
          "type": "uint256"
        }
      ],
      "name": "approve",
      "outputs": [],
      "stateMutability": "nonpayable",
      "type": "function"
    },
    {
      "inputs": [
        {
          "internalType": "address",
          "name": "owner",
          "type": "address"
        }
      ],
      "name": "balanceOf",
      "outputs": [
        {
          "internalType": "uint256",
          "name": "",
          "type": "uint256"
        }
      ],
      "stateMutability": "view",
      "type": "function",
      "constant": true
    },
    {
      "inputs": [],
      "name": "baseExtension",
      "outputs": [
        {
          "internalType": "string",
          "name": "",
          "type": "string"
        }
      ],
      "stateMutability": "view",
      "type": "function",
      "constant": true
    },
    {
      "inputs": [],
      "name": "cost",
      "outputs": [
        {
          "internalType": "uint256",
          "name": "",
          "type": "uint256"
        }
      ],
      "stateMutability": "view",
      "type": "function",
      "constant": true
    },
    {
      "inputs": [],
      "name": "funSetting",
      "outputs": [
        {
          "internalType": "enum MyNFTProject.STATUS",
          "name": "",
          "type": "uint8"
        }
      ],
      "stateMutability": "view",
      "type": "function",
      "constant": true
    },
    {
      "inputs": [
        {
          "internalType": "uint256",
          "name": "tokenId",
          "type": "uint256"
        }
      ],
      "name": "getApproved",
      "outputs": [
        {
          "internalType": "address",
          "name": "",
          "type": "address"
        }
      ],
      "stateMutability": "view",
      "type": "function",
      "constant": true
    },
    {
      "inputs": [
        {
          "internalType": "address",
          "name": "owner",
          "type": "address"
        },
        {
          "internalType": "address",
          "name": "operator",
          "type": "address"
        }
      ],
      "name": "isApprovedForAll",
      "outputs": [
        {
          "internalType": "bool",
          "name": "",
          "type": "bool"
        }
      ],
      "stateMutability": "view",
      "type": "function",
      "constant": true
    },
    {
      "inputs": [],
      "name": "maxMintAmount",
      "outputs": [
        {
          "internalType": "uint256",
          "name": "",
          "type": "uint256"
        }
      ],
      "stateMutability": "view",
      "type": "function",
      "constant": true
    },
    {
      "inputs": [],
      "name": "maxSupply",
      "outputs": [
        {
          "internalType": "uint256",
          "name": "",
          "type": "uint256"
        }
      ],
      "stateMutability": "view",
      "type": "function",
      "constant": true
    },
    {
      "inputs": [],
      "name": "name",
      "outputs": [
        {
          "internalType": "string",
          "name": "",
          "type": "string"
        }
      ],
      "stateMutability": "view",
      "type": "function",
      "constant": true
    },
    {
      "inputs": [],
      "name": "owner",
      "outputs": [
        {
          "internalType": "address",
          "name": "",
          "type": "address"
        }
      ],
      "stateMutability": "view",
      "type": "function",
      "constant": true
    },
    {
      "inputs": [
        {
          "internalType": "uint256",
          "name": "tokenId",
          "type": "uint256"
        }
      ],
      "name": "ownerOf",
      "outputs": [
        {
          "internalType": "address",
          "name": "",
          "type": "address"
        }
      ],
      "stateMutability": "view",
      "type": "function",
      "constant": true
    },
    {
      "inputs": [],
      "name": "paused",
      "outputs": [
        {
          "internalType": "bool",
          "name": "",
          "type": "bool"
        }
      ],
      "stateMutability": "view",
      "type": "function",
      "constant": true
    },
    {
      "inputs": [],
      "name": "renounceOwnership",
      "outputs": [],
      "stateMutability": "nonpayable",
      "type": "function"
    },
    {
      "inputs": [
        {
          "internalType": "address",
          "name": "from",
          "type": "address"
        },
        {
          "internalType": "address",
          "name": "to",
          "type": "address"
        },
        {
          "internalType": "uint256",
          "name": "tokenId",
          "type": "uint256"
        }
      ],
      "name": "safeTransferFrom",
      "outputs": [],
      "stateMutability": "nonpayable",
      "type": "function"
    },
    {
      "inputs": [
        {
          "internalType": "address",
          "name": "from",
          "type": "address"
        },
        {
          "internalType": "address",
          "name": "to",
          "type": "address"
        },
        {
          "internalType": "uint256",
          "name": "tokenId",
          "type": "uint256"
        },
        {
          "internalType": "bytes",
          "name": "_data",
          "type": "bytes"
        }
      ],
      "name": "safeTransferFrom",
      "outputs": [],
      "stateMutability": "nonpayable",
      "type": "function"
    },
    {
      "inputs": [
        {
          "internalType": "address",
          "name": "operator",
          "type": "address"
        },
        {
          "internalType": "bool",
          "name": "approved",
          "type": "bool"
        }
      ],
      "name": "setApprovalForAll",
      "outputs": [],
      "stateMutability": "nonpayable",
      "type": "function"
    },
    {
      "inputs": [],
      "name": "symbol",
      "outputs": [
        {
          "internalType": "string",
          "name": "",
          "type": "string"
        }
      ],
      "stateMutability": "view",
      "type": "function",
      "constant": true
    },
    {
      "inputs": [
        {
          "internalType": "uint256",
          "name": "index",
          "type": "uint256"
        }
      ],
      "name": "tokenByIndex",
      "outputs": [
        {
          "internalType": "uint256",
          "name": "",
          "type": "uint256"
        }
      ],
      "stateMutability": "view",
      "type": "function",
      "constant": true
    },
    {
      "inputs": [
        {
          "internalType": "address",
          "name": "owner",
          "type": "address"
        },
        {
          "internalType": "uint256",
          "name": "index",
          "type": "uint256"
        }
      ],
      "name": "tokenOfOwnerByIndex",
      "outputs": [
        {
          "internalType": "uint256",
          "name": "",
          "type": "uint256"
        }
      ],
      "stateMutability": "view",
      "type": "function",
      "constant": true
    },
    {
      "inputs": [],
      "name": "totalSupply",
      "outputs": [
        {
          "internalType": "uint256",
          "name": "",
          "type": "uint256"
        }
      ],
      "stateMutability": "view",
      "type": "function",
      "constant": true
    },
    {
      "inputs": [
        {
          "internalType": "address",
          "name": "from",
          "type": "address"
        },
        {
          "internalType": "address",
          "name": "to",
          "type": "address"
        },
        {
          "internalType": "uint256",
          "name": "tokenId",
          "type": "uint256"
        }
      ],
      "name": "transferFrom",
      "outputs": [],
      "stateMutability": "nonpayable",
      "type": "function"
    },
    {
      "inputs": [
        {
          "internalType": "address",
          "name": "newOwner",
          "type": "address"
        }
      ],
      "name": "transferOwnership",
      "outputs": [],
      "stateMutability": "nonpayable",
      "type": "function"
    },
    {
      "inputs": [
        {
          "internalType": "string",
          "name": "_newBaseURI",
          "type": "string"
        }
      ],
      "name": "setBaseURI",
      "outputs": [],
      "stateMutability": "nonpayable",
      "type": "function"
    },
    {
      "inputs": [],
      "name": "pause",
      "outputs": [],
      "stateMutability": "nonpayable",
      "type": "function"
    },
    {
      "inputs": [],
      "name": "unpause",
      "outputs": [],
      "stateMutability": "nonpayable",
      "type": "function"
    },
    {
      "inputs": [
        {
          "internalType": "uint256",
          "name": "_mintAmount",
          "type": "uint256"
        }
      ],
      "name": "mint",
      "outputs": [],
      "stateMutability": "payable",
      "type": "function",
      "payable": true
    },
    {
      "inputs": [
        {
          "internalType": "address",
          "name": "_owner",
          "type": "address"
        }
      ],
      "name": "walletOfOwner",
      "outputs": [
        {
          "internalType": "uint256[]",
          "name": "",
          "type": "uint256[]"
        }
      ],
      "stateMutability": "view",
      "type": "function",
      "constant": true
    },
    {
      "inputs": [
        {
          "internalType": "uint256",
          "name": "tokenId",
          "type": "uint256"
        }
      ],
      "name": "tokenURI",
      "outputs": [
        {
          "internalType": "string",
          "name": "",
          "type": "string"
        }
      ],
      "stateMutability": "view",
      "type": "function",
      "constant": true
    },
    {
      "inputs": [
        {
          "internalType": "uint256",
          "name": "_newCost",
          "type": "uint256"
        }
      ],
      "name": "setCost",
      "outputs": [],
      "stateMutability": "nonpayable",
      "type": "function"
    },
    {
      "inputs": [
        {
          "internalType": "uint256",
          "name": "_newmaxMintAmount",
          "type": "uint256"
        }
      ],
      "name": "setmaxMintAmount",
      "outputs": [],
      "stateMutability": "nonpayable",
      "type": "function"
    },
    {
      "inputs": [
        {
          "internalType": "uint256",
          "name": "_newmaxSupply",
          "type": "uint256"
        }
      ],
      "name": "setmaxSupply",
      "outputs": [],
      "stateMutability": "nonpayable",
      "type": "function"
    },
    {
      "inputs": [
        {
          "internalType": "string",
          "name": "_newBaseExtension",
          "type": "string"
        }
      ],
      "name": "setBaseExtension",
      "outputs": [],
      "stateMutability": "nonpayable",
      "type": "function"
    },
    {
      "inputs": [],
      "name": "turnOn",
      "outputs": [],
      "stateMutability": "nonpayable",
      "type": "function"
    },
    {
      "inputs": [],
      "name": "turnOff",
      "outputs": [],
      "stateMutability": "nonpayable",
      "type": "function"
    },
    {
      "inputs": [
        {
          "internalType": "uint256",
          "name": "tokenId",
          "type": "uint256"
        }
      ],
      "name": "burn",
      "outputs": [],
      "stateMutability": "nonpayable",
      "type": "function"
    },
    {
      "inputs": [],
      "name": "getContractBalance",
      "outputs": [
        {
          "internalType": "uint256",
          "name": "",
          "type": "uint256"
        }
      ],
      "stateMutability": "view",
      "type": "function",
      "constant": true
    },
    {
      "inputs": [],
      "name": "withdraw",
      "outputs": [],
      "stateMutability": "payable",
      "type": "function",
      "payable": true
    },
    {
      "inputs": [
        {
          "internalType": "bytes4",
          "name": "interfaceId",
          "type": "bytes4"
        }
      ],
      "name": "supportsInterface",
      "outputs": [
        {
          "internalType": "bool",
          "name": "",
          "type": "bool"
        }
      ],
      "stateMutability": "view",
      "type": "function",
      "constant": true
    }
  ],
  "bytecode": "0x60c06040526005608081905264173539b7b760d91b60a09081526200002891600d919062000203565b506548c273950000600e556003600f55600a6010556011805460ff191660011790553480156200005757600080fd5b5060405162002d7438038062002d748339810160408190526200007a91620002bf565b604080518082018252600c81526b135e539195141c9bda9958dd60a21b602080830191825283518085019094526005845264135653919560da1b908401528151919291620000cb9160009162000203565b508051620000e190600190602084019062000203565b5050600a805460ff1916905550620000f93362000122565b62000104816200017c565b6200011b600b620001fa60201b620015201760201c565b50620003d8565b600a80546001600160a01b03838116610100818102610100600160a81b031985161790945560405193909204169182907f8be0079c531659141344cd1fd0a4f28419497f9722a3daafe3b4186f6b6457e090600090a35050565b600a546001600160a01b03610100909104163314620001e15760405162461bcd60e51b815260206004820181905260248201527f4f776e61626c653a2063616c6c6572206973206e6f7420746865206f776e6572604482015260640160405180910390fd5b8051620001f690600c90602084019062000203565b5050565b80546001019055565b82805462000211906200039b565b90600052602060002090601f01602090048101928262000235576000855562000280565b82601f106200025057805160ff191683800117855562000280565b8280016001018555821562000280579182015b828111156200028057825182559160200191906001019062000263565b506200028e92915062000292565b5090565b5b808211156200028e576000815560010162000293565b634e487b7160e01b600052604160045260246000fd5b60006020808385031215620002d357600080fd5b82516001600160401b0380821115620002eb57600080fd5b818501915085601f8301126200030057600080fd5b815181811115620003155762000315620002a9565b604051601f8201601f19908116603f01168101908382118183101715620003405762000340620002a9565b8160405282815288868487010111156200035957600080fd5b600093505b828410156200037d57848401860151818501870152928501926200035e565b828411156200038f5760008684830101525b98975050505050505050565b600181811c90821680620003b057607f821691505b60208210811415620003d257634e487b7160e01b600052602260045260246000fd5b50919050565b61298c80620003e86000396000f3fe6080604052600436106102305760003560e01c80636352211e1161012e578063a59e9080116100ab578063c87b56dd1161006f578063c87b56dd14610627578063d5abeb0114610647578063da3ef23f1461065d578063e985e9c51461067d578063f2fde38b146106c657600080fd5b8063a59e9080146105a1578063af10c810146105c8578063b88d4fde146105dd578063ba33ed7d146105fd578063c66828621461061257600080fd5b80638456cb59116100f25780638456cb59146105215780638da5cb5b1461053657806395d89b4114610559578063a0712d681461056e578063a22cb4651461058157600080fd5b80636352211e146104975780636f9fb98a146104b757806370a08231146104cc578063715018a6146104ec5780637f00c7a61461050157600080fd5b80632f745c59116101bc578063438b630011610180578063438b6300146103f257806344a0d68a1461041f5780634f6ccce71461043f57806355f804b31461045f5780635c975abb1461047f57600080fd5b80632f745c59146103755780633ccfd60b146103955780633f4ba83a1461039d57806342842e0e146103b257806342966c68146103d257600080fd5b806313faede61161020357806313faede6146102e657806318160ddd1461030a578063228025e81461031f578063239c70ae1461033f57806323b872dd1461035557600080fd5b806301ffc9a71461023557806306fdde031461026a578063081812fc1461028c578063095ea7b3146102c4575b600080fd5b34801561024157600080fd5b506102556102503660046122bc565b6106e6565b60405190151581526020015b60405180910390f35b34801561027657600080fd5b5061027f6106f7565b6040516102619190612331565b34801561029857600080fd5b506102ac6102a7366004612344565b610789565b6040516001600160a01b039091168152602001610261565b3480156102d057600080fd5b506102e46102df366004612379565b610823565b005b3480156102f257600080fd5b506102fc600e5481565b604051908152602001610261565b34801561031657600080fd5b506008546102fc565b34801561032b57600080fd5b506102e461033a366004612344565b610939565b34801561034b57600080fd5b506102fc600f5481565b34801561036157600080fd5b506102e46103703660046123a3565b61096e565b34801561038157600080fd5b506102fc610390366004612379565b6109a0565b6102e4610a36565b3480156103a957600080fd5b506102e4610abe565b3480156103be57600080fd5b506102e46103cd3660046123a3565b610af8565b3480156103de57600080fd5b506102e46103ed366004612344565b610b13565b3480156103fe57600080fd5b5061041261040d3660046123df565b610be6565b60405161026191906123fa565b34801561042b57600080fd5b506102e461043a366004612344565b610c88565b34801561044b57600080fd5b506102fc61045a366004612344565b610cbd565b34801561046b57600080fd5b506102e461047a3660046124ca565b610d50565b34801561048b57600080fd5b50600a5460ff16610255565b3480156104a357600080fd5b506102ac6104b2366004612344565b610d97565b3480156104c357600080fd5b506102fc610e0e565b3480156104d857600080fd5b506102fc6104e73660046123df565b610e46565b3480156104f857600080fd5b506102e4610ecd565b34801561050d57600080fd5b506102e461051c366004612344565b610f07565b34801561052d57600080fd5b506102e4610f3c565b34801561054257600080fd5b50600a5461010090046001600160a01b03166102ac565b34801561056557600080fd5b5061027f610f74565b6102e461057c366004612344565b610f83565b34801561058d57600080fd5b506102e461059c366004612513565b611212565b3480156105ad57600080fd5b506011546105bb9060ff1681565b6040516102619190612565565b3480156105d457600080fd5b506102e461121d565b3480156105e957600080fd5b506102e46105f836600461258d565b611263565b34801561060957600080fd5b506102e461129b565b34801561061e57600080fd5b5061027f6112df565b34801561063357600080fd5b5061027f610642366004612344565b61136d565b34801561065357600080fd5b506102fc60105481565b34801561066957600080fd5b506102e46106783660046124ca565b61143f565b34801561068957600080fd5b50610255610698366004612609565b6001600160a01b03918216600090815260056020908152604080832093909416825291909152205460ff1690565b3480156106d257600080fd5b506102e46106e13660046123df565b611482565b60006106f182611529565b92915050565b6060600080546107069061263c565b80601f01602080910402602001604051908101604052809291908181526020018280546107329061263c565b801561077f5780601f106107545761010080835404028352916020019161077f565b820191906000526020600020905b81548152906001019060200180831161076257829003601f168201915b5050505050905090565b6000818152600260205260408120546001600160a01b03166108075760405162461bcd60e51b815260206004820152602c60248201527f4552433732313a20617070726f76656420717565727920666f72206e6f6e657860448201526b34b9ba32b73a103a37b5b2b760a11b60648201526084015b60405180910390fd5b506000908152600460205260409020546001600160a01b031690565b600061082e82610d97565b9050806001600160a01b0316836001600160a01b0316141561089c5760405162461bcd60e51b815260206004820152602160248201527f4552433732313a20617070726f76616c20746f2063757272656e74206f776e656044820152603960f91b60648201526084016107fe565b336001600160a01b03821614806108b857506108b88133610698565b61092a5760405162461bcd60e51b815260206004820152603860248201527f4552433732313a20617070726f76652063616c6c6572206973206e6f74206f7760448201527f6e6572206e6f7220617070726f76656420666f7220616c6c000000000000000060648201526084016107fe565b610934838361154e565b505050565b600a546001600160a01b036101009091041633146109695760405162461bcd60e51b81526004016107fe90612677565b601055565b610979335b826115bc565b6109955760405162461bcd60e51b81526004016107fe906126ac565b6109348383836116b3565b60006109ab83610e46565b8210610a0d5760405162461bcd60e51b815260206004820152602b60248201527f455243373231456e756d657261626c653a206f776e657220696e646578206f7560448201526a74206f6620626f756e647360a81b60648201526084016107fe565b506001600160a01b03919091166000908152600660209081526040808320938352929052205490565b600a546001600160a01b03610100909104163314610a665760405162461bcd60e51b81526004016107fe90612677565b604051600090339047908381818185875af1925050503d8060008114610aa8576040519150601f19603f3d011682016040523d82523d6000602084013e610aad565b606091505b5050905080610abb57600080fd5b50565b600a546001600160a01b03610100909104163314610aee5760405162461bcd60e51b81526004016107fe90612677565b610af661185e565b565b61093483838360405180602001604052806000815250611263565b600060115460ff166001811115610b2c57610b2c61254f565b1415610ba957610b3b33610973565b610ba05760405162461bcd60e51b815260206004820152603060248201527f4552433732314275726e61626c653a2063616c6c6572206973206e6f74206f7760448201526f1b995c881b9bdc88185c1c1c9bdd995960821b60648201526084016107fe565b610abb816118f1565b60405162461bcd60e51b81526020600482015260126024820152714275726e206e6f7420617661696c61626c6560701b60448201526064016107fe565b60606000610bf383610e46565b905060008167ffffffffffffffff811115610c1057610c1061243e565b604051908082528060200260200182016040528015610c39578160200160208202803683370190505b50905060005b82811015610c8057610c5185826109a0565b828281518110610c6357610c636126fd565b602090810291909101015280610c7881612729565b915050610c3f565b509392505050565b600a546001600160a01b03610100909104163314610cb85760405162461bcd60e51b81526004016107fe90612677565b600e55565b6000610cc860085490565b8210610d2b5760405162461bcd60e51b815260206004820152602c60248201527f455243373231456e756d657261626c653a20676c6f62616c20696e646578206f60448201526b7574206f6620626f756e647360a01b60648201526084016107fe565b60088281548110610d3e57610d3e6126fd565b90600052602060002001549050919050565b600a546001600160a01b03610100909104163314610d805760405162461bcd60e51b81526004016107fe90612677565b8051610d9390600c90602084019061220d565b5050565b6000818152600260205260408120546001600160a01b0316806106f15760405162461bcd60e51b815260206004820152602960248201527f4552433732313a206f776e657220717565727920666f72206e6f6e657869737460448201526832b73a103a37b5b2b760b91b60648201526084016107fe565b600a546000906001600160a01b03610100909104163314610e415760405162461bcd60e51b81526004016107fe90612677565b504790565b60006001600160a01b038216610eb15760405162461bcd60e51b815260206004820152602a60248201527f4552433732313a2062616c616e636520717565727920666f7220746865207a65604482015269726f206164647265737360b01b60648201526084016107fe565b506001600160a01b031660009081526003602052604090205490565b600a546001600160a01b03610100909104163314610efd5760405162461bcd60e51b81526004016107fe90612677565b610af66000611998565b600a546001600160a01b03610100909104163314610f375760405162461bcd60e51b81526004016107fe90612677565b600f55565b600a546001600160a01b03610100909104163314610f6c5760405162461bcd60e51b81526004016107fe90612677565b610af66119f2565b6060600180546107069061263c565b6002610f8e33610e46565b1115610fdc5760405162461bcd60e51b815260206004820181905260248201527f4f6e6c792033206d696e747320616c6c6f77656420706572206163636f756e7460448201526064016107fe565b600a5460ff16156110245760405162461bcd60e51b815260206004820152601260248201527110dbdb9d1c9858dd081a5cc81c185d5cd95960721b60448201526064016107fe565b6000811161106a5760405162461bcd60e51b81526020600482015260136024820152724d696e7420616d6f756e74206973207a65726f60681b60448201526064016107fe565b600f548111156110d05760405162461bcd60e51b815260206004820152602b60248201527f4d696e7420616d6f756e74206578636565647320746865206d6178696d756d2060448201526a1b5a5b9d08185b5bdd5b9d60aa1b60648201526084016107fe565b60006110db60085490565b6010549091506110eb8383612744565b11156111485760405162461bcd60e51b815260206004820152602660248201527f4d696e7420616d6f756e74206578636565647320746865206d6178696d756d20604482015265737570706c7960d01b60648201526084016107fe565b600a5461010090046001600160a01b03166001600160a01b0316336001600160a01b0316146111e35781600e5461117f919061275c565b3410156111e35760405162461bcd60e51b815260206004820152602c60248201527f56616c7565206d75737420626520657175616c206f722067726561746572207460448201526b1a185b881d1a194818dbdcdd60a21b60648201526084016107fe565b60015b82811161093457611200336111fb8385612744565b611a6d565b8061120a81612729565b9150506111e6565b610d93338383611a87565b600a546001600160a01b0361010090910416331461124d5760405162461bcd60e51b81526004016107fe90612677565b601180546001919060ff191682805b0217905550565b61126d33836115bc565b6112895760405162461bcd60e51b81526004016107fe906126ac565b61129584848484611b56565b50505050565b600a546001600160a01b036101009091041633146112cb5760405162461bcd60e51b81526004016107fe90612677565b601180546000919060ff191660018361125c565b600d80546112ec9061263c565b80601f01602080910402602001604051908101604052809291908181526020018280546113189061263c565b80156113655780601f1061133a57610100808354040283529160200191611365565b820191906000526020600020905b81548152906001019060200180831161134857829003601f168201915b505050505081565b6000818152600260205260409020546060906001600160a01b03166113e05760405162461bcd60e51b8152602060048201526024808201527f4552433732314d657461646174613a20546f6b656e20646f6573206e6f7420656044820152631e1a5cdd60e21b60648201526084016107fe565b60006113ea611b89565b9050600081511161140a5760405180602001604052806000815250611438565b8061141484611b98565b600d6040516020016114289392919061277b565b6040516020818303038152906040525b9392505050565b600a546001600160a01b0361010090910416331461146f5760405162461bcd60e51b81526004016107fe90612677565b8051610d9390600d90602084019061220d565b600a546001600160a01b036101009091041633146114b25760405162461bcd60e51b81526004016107fe90612677565b6001600160a01b0381166115175760405162461bcd60e51b815260206004820152602660248201527f4f776e61626c653a206e6577206f776e657220697320746865207a65726f206160448201526564647265737360d01b60648201526084016107fe565b610abb81611998565b80546001019055565b60006001600160e01b0319821663780e9d6360e01b14806106f157506106f182611c96565b600081815260046020526040902080546001600160a01b0319166001600160a01b038416908117909155819061158382610d97565b6001600160a01b03167f8c5be1e5ebec7d5bd14f71427d1e84f3dd0314c0f7b2291e5b200ac8c7c3b92560405160405180910390a45050565b6000818152600260205260408120546001600160a01b03166116355760405162461bcd60e51b815260206004820152602c60248201527f4552433732313a206f70657261746f7220717565727920666f72206e6f6e657860448201526b34b9ba32b73a103a37b5b2b760a11b60648201526084016107fe565b600061164083610d97565b9050806001600160a01b0316846001600160a01b0316148061167b5750836001600160a01b031661167084610789565b6001600160a01b0316145b806116ab57506001600160a01b0380821660009081526005602090815260408083209388168352929052205460ff165b949350505050565b826001600160a01b03166116c682610d97565b6001600160a01b03161461172e5760405162461bcd60e51b815260206004820152602960248201527f4552433732313a207472616e73666572206f6620746f6b656e2074686174206960448201526839903737ba1037bbb760b91b60648201526084016107fe565b6001600160a01b0382166117905760405162461bcd60e51b8152602060048201526024808201527f4552433732313a207472616e7366657220746f20746865207a65726f206164646044820152637265737360e01b60648201526084016107fe565b61179b838383611ce6565b6117a660008261154e565b6001600160a01b03831660009081526003602052604081208054600192906117cf90849061283f565b90915550506001600160a01b03821660009081526003602052604081208054600192906117fd908490612744565b909155505060008181526002602052604080822080546001600160a01b0319166001600160a01b0386811691821790925591518493918716917fddf252ad1be2c89b69c2b068fc378daa952ba7f163c4a11628f55a4df523b3ef91a4505050565b600a5460ff166118a75760405162461bcd60e51b815260206004820152601460248201527314185d5cd8589b194e881b9bdd081c185d5cd95960621b60448201526064016107fe565b600a805460ff191690557f5db9ee0a495bf2e6ff9c91a7834c1ba4fdd244a5e8aa4e537bd38aeae4b073aa335b6040516001600160a01b03909116815260200160405180910390a1565b60006118fc82610d97565b905061190a81600084611ce6565b61191560008361154e565b6001600160a01b038116600090815260036020526040812080546001929061193e90849061283f565b909155505060008281526002602052604080822080546001600160a01b0319169055518391906001600160a01b038416907fddf252ad1be2c89b69c2b068fc378daa952ba7f163c4a11628f55a4df523b3ef908390a45050565b600a80546001600160a01b03838116610100818102610100600160a81b031985161790945560405193909204169182907f8be0079c531659141344cd1fd0a4f28419497f9722a3daafe3b4186f6b6457e090600090a35050565b600a5460ff1615611a385760405162461bcd60e51b815260206004820152601060248201526f14185d5cd8589b194e881c185d5cd95960821b60448201526064016107fe565b600a805460ff191660011790557f62e78cea01bee320cd4e420270b5ea74000d11b0c9f74754ebdbfc544b05a2586118d43390565b610d93828260405180602001604052806000815250611d37565b816001600160a01b0316836001600160a01b03161415611ae95760405162461bcd60e51b815260206004820152601960248201527f4552433732313a20617070726f766520746f2063616c6c65720000000000000060448201526064016107fe565b6001600160a01b03838116600081815260056020908152604080832094871680845294825291829020805460ff191686151590811790915591519182527f17307eab39ab6107e8899845ad3d59bd9653f200f220920489ca2b5937696c31910160405180910390a3505050565b611b618484846116b3565b611b6d84848484611d6a565b6112955760405162461bcd60e51b81526004016107fe90612856565b6060600c80546107069061263c565b606081611bbc5750506040805180820190915260018152600360fc1b602082015290565b8160005b8115611be65780611bd081612729565b9150611bdf9050600a836128be565b9150611bc0565b60008167ffffffffffffffff811115611c0157611c0161243e565b6040519080825280601f01601f191660200182016040528015611c2b576020820181803683370190505b5090505b84156116ab57611c4060018361283f565b9150611c4d600a866128d2565b611c58906030612744565b60f81b818381518110611c6d57611c6d6126fd565b60200101906001600160f81b031916908160001a905350611c8f600a866128be565b9450611c2f565b60006001600160e01b031982166380ac58cd60e01b1480611cc757506001600160e01b03198216635b5e139f60e01b145b806106f157506301ffc9a760e01b6001600160e01b03198316146106f1565b600a5460ff1615611d2c5760405162461bcd60e51b815260206004820152601060248201526f14185d5cd8589b194e881c185d5cd95960821b60448201526064016107fe565b610934838383611e77565b611d418383611f2f565b611d4e6000848484611d6a565b6109345760405162461bcd60e51b81526004016107fe90612856565b60006001600160a01b0384163b15611e6c57604051630a85bd0160e11b81526001600160a01b0385169063150b7a0290611dae9033908990889088906004016128e6565b602060405180830381600087803b158015611dc857600080fd5b505af1925050508015611df8575060408051601f3d908101601f19168201909252611df591810190612923565b60015b611e52573d808015611e26576040519150601f19603f3d011682016040523d82523d6000602084013e611e2b565b606091505b508051611e4a5760405162461bcd60e51b81526004016107fe90612856565b805181602001fd5b6001600160e01b031916630a85bd0160e11b1490506116ab565b506001949350505050565b6001600160a01b038316611ed257611ecd81600880546000838152600960205260408120829055600182018355919091527ff3f7a9fe364faab93b216da50a3214154f22a0a2b415b23a84c8169e8b636ee30155565b611ef5565b816001600160a01b0316836001600160a01b031614611ef557611ef5838261207d565b6001600160a01b038216611f0c576109348161211a565b826001600160a01b0316826001600160a01b0316146109345761093482826121c9565b6001600160a01b038216611f855760405162461bcd60e51b815260206004820181905260248201527f4552433732313a206d696e7420746f20746865207a65726f206164647265737360448201526064016107fe565b6000818152600260205260409020546001600160a01b031615611fea5760405162461bcd60e51b815260206004820152601c60248201527f4552433732313a20746f6b656e20616c7265616479206d696e7465640000000060448201526064016107fe565b611ff660008383611ce6565b6001600160a01b038216600090815260036020526040812080546001929061201f908490612744565b909155505060008181526002602052604080822080546001600160a01b0319166001600160a01b03861690811790915590518392907fddf252ad1be2c89b69c2b068fc378daa952ba7f163c4a11628f55a4df523b3ef908290a45050565b6000600161208a84610e46565b612094919061283f565b6000838152600760205260409020549091508082146120e7576001600160a01b03841660009081526006602090815260408083208584528252808320548484528184208190558352600790915290208190555b5060009182526007602090815260408084208490556001600160a01b039094168352600681528383209183525290812055565b60085460009061212c9060019061283f565b60008381526009602052604081205460088054939450909284908110612154576121546126fd565b906000526020600020015490508060088381548110612175576121756126fd565b60009182526020808320909101929092558281526009909152604080822084905585825281205560088054806121ad576121ad612940565b6001900381819060005260206000200160009055905550505050565b60006121d483610e46565b6001600160a01b039093166000908152600660209081526040808320868452825280832085905593825260079052919091209190915550565b8280546122199061263c565b90600052602060002090601f01602090048101928261223b5760008555612281565b82601f1061225457805160ff1916838001178555612281565b82800160010185558215612281579182015b82811115612281578251825591602001919060010190612266565b5061228d929150612291565b5090565b5b8082111561228d5760008155600101612292565b6001600160e01b031981168114610abb57600080fd5b6000602082840312156122ce57600080fd5b8135611438816122a6565b60005b838110156122f45781810151838201526020016122dc565b838111156112955750506000910152565b6000815180845261231d8160208601602086016122d9565b601f01601f19169290920160200192915050565b6020815260006114386020830184612305565b60006020828403121561235657600080fd5b5035919050565b80356001600160a01b038116811461237457600080fd5b919050565b6000806040838503121561238c57600080fd5b6123958361235d565b946020939093013593505050565b6000806000606084860312156123b857600080fd5b6123c18461235d565b92506123cf6020850161235d565b9150604084013590509250925092565b6000602082840312156123f157600080fd5b6114388261235d565b6020808252825182820181905260009190848201906040850190845b8181101561243257835183529284019291840191600101612416565b50909695505050505050565b634e487b7160e01b600052604160045260246000fd5b600067ffffffffffffffff8084111561246f5761246f61243e565b604051601f8501601f19908116603f011681019082821181831017156124975761249761243e565b816040528093508581528686860111156124b057600080fd5b858560208301376000602087830101525050509392505050565b6000602082840312156124dc57600080fd5b813567ffffffffffffffff8111156124f357600080fd5b8201601f8101841361250457600080fd5b6116ab84823560208401612454565b6000806040838503121561252657600080fd5b61252f8361235d565b91506020830135801515811461254457600080fd5b809150509250929050565b634e487b7160e01b600052602160045260246000fd5b602081016002831061258757634e487b7160e01b600052602160045260246000fd5b91905290565b600080600080608085870312156125a357600080fd5b6125ac8561235d565b93506125ba6020860161235d565b925060408501359150606085013567ffffffffffffffff8111156125dd57600080fd5b8501601f810187136125ee57600080fd5b6125fd87823560208401612454565b91505092959194509250565b6000806040838503121561261c57600080fd5b6126258361235d565b91506126336020840161235d565b90509250929050565b600181811c9082168061265057607f821691505b6020821081141561267157634e487b7160e01b600052602260045260246000fd5b50919050565b6020808252818101527f4f776e61626c653a2063616c6c6572206973206e6f7420746865206f776e6572604082015260600190565b60208082526031908201527f4552433732313a207472616e736665722063616c6c6572206973206e6f74206f6040820152701ddb995c881b9bdc88185c1c1c9bdd9959607a1b606082015260800190565b634e487b7160e01b600052603260045260246000fd5b634e487b7160e01b600052601160045260246000fd5b600060001982141561273d5761273d612713565b5060010190565b6000821982111561275757612757612713565b500190565b600081600019048311821515161561277657612776612713565b500290565b60008451602061278e8285838a016122d9565b8551918401916127a18184848a016122d9565b8554920191600090600181811c90808316806127be57607f831692505b8583108114156127dc57634e487b7160e01b85526022600452602485fd5b8080156127f057600181146128015761282e565b60ff1985168852838801955061282e565b60008b81526020902060005b858110156128265781548a82015290840190880161280d565b505083880195505b50939b9a5050505050505050505050565b60008282101561285157612851612713565b500390565b60208082526032908201527f4552433732313a207472616e7366657220746f206e6f6e20455243373231526560408201527131b2b4bb32b91034b6b83632b6b2b73a32b960711b606082015260800190565b634e487b7160e01b600052601260045260246000fd5b6000826128cd576128cd6128a8565b500490565b6000826128e1576128e16128a8565b500690565b6001600160a01b038581168252841660208201526040810183905260806060820181905260009061291990830184612305565b9695505050505050565b60006020828403121561293557600080fd5b8151611438816122a6565b634e487b7160e01b600052603160045260246000fdfea2646970667358221220d7c17f7267256a83663b137e3430c550815b55d5abd76888466490ffd93fcc4564736f6c63430008090033",
  "immutableReferences": {},
  "source": "// SPDX-License-Identifier: MIT\npragma solidity 0.8.9;\n\nimport \"@openzeppelin/contracts/token/ERC721/ERC721.sol\";\nimport \"@openzeppelin/contracts/token/ERC721/extensions/ERC721Enumerable.sol\";\nimport \"@openzeppelin/contracts/security/Pausable.sol\";\nimport \"@openzeppelin/contracts/access/Ownable.sol\";\nimport \"@openzeppelin/contracts/token/ERC721/extensions/ERC721Burnable.sol\";\nimport \"@openzeppelin/contracts/utils/Counters.sol\";\n\n/// @title MyNFTProject\ncontract MyNFTProject is ERC721, ERC721Enumerable, Pausable, Ownable, ERC721Burnable {\n    using Counters for Counters.Counter;\n    using Strings for uint256;\n\n    Counters.Counter private _tokenIdCounter;\n\n    // Base URI\n    string baseURI;\n\n    // Base extension\n    string public baseExtension = \".json\";\n\n    // Cost of minting in wei\n    uint256 public cost = 80000000000000 wei; // 0.00008 eth = 80000000000000 wei\n\n    // Maximum mint amount per account\n    uint256 public maxMintAmount = 3;\n\n    // Maximum supply of tokens\n    uint256 public maxSupply = 10;\n\n    // Enum setting used for function status\n    enum STATUS {ON, OFF}\n    STATUS public funSetting = STATUS.OFF;\n\n    constructor(string memory _initBaseURI) ERC721(\"MyNFTProject\", \"MYNFT\") {\n        // sets BaseURI\n        setBaseURI(_initBaseURI);\n\n        // starts NFT counter at 1\n        _tokenIdCounter.increment();\n    }\n\n    /// @dev sets the base URI for the NFTs\n    function _baseURI() internal view override returns (string memory) {\n        return baseURI;\n    }\n\n    /**\n    * @dev While the initial base URI is set at compilation, this function\n    * assigns a new base URI - available to owner\n    */\n    function setBaseURI(string memory _newBaseURI) public onlyOwner {\n        baseURI = _newBaseURI;\n    }\n\n    /// @dev Security feature that pauses the contract - available to owner\n    function pause() public onlyOwner {\n        _pause();\n    }\n\n    /// @dev Security feature that unpauses the contract - available to owner\n    function unpause() public onlyOwner {\n        _unpause();\n    }\n\n    /**\n    * @dev Minting function - available to the public.\n    * @notice Creates your entertaining collectible.\n    * Requirements:\n    *\n    * - the mint amount does not exceed the allowable NFT limit per account\n    * - the contract is unpaused\n    * - the mint amount is not equal to zero\n    * - the mint amount does not exceed the max mint amount per account\n    * - the mint amount does not exceed the max supply of tokens\n    * - the minter has enough coin to mint\n    */\n    function mint(uint256 _mintAmount) public payable {\n        require(balanceOf(msg.sender) <= 2, \"Only 3 mints allowed per account\");\n        require(!paused(), \"Contract is paused\");\n        require(_mintAmount > 0, \"Mint amount is zero\");\n        require(_mintAmount <= maxMintAmount, \"Mint amount exceeds the maximum mint amount\");\n        uint256 supply = totalSupply();\n        require(supply + _mintAmount <= maxSupply, \"Mint amount exceeds the maximum supply\");\n\n        if (msg.sender != owner()) {\n            require(msg.value >= cost * _mintAmount, \"Value must be equal or greater than the cost\");\n        }\n\n        for (uint256 i = 1; i <= _mintAmount; i++) {\n            _safeMint(msg.sender, supply + i);\n        }\n    }\n\n    /// @dev Function returning an array of a collector's token IDs\n    /// @param _owner The collector's address\n    /// @return array Token IDs\n    function walletOfOwner(address _owner) public view returns (uint256[] memory) {\n        uint256 ownerTokenCount = balanceOf(_owner);\n        uint256[] memory tokenIds = new uint256[](ownerTokenCount);\n        for (uint256 i; i < ownerTokenCount; i++) {\n            tokenIds[i] = tokenOfOwnerByIndex(_owner, i);\n        }\n        return tokenIds;\n    }\n\n    /**\n    * @dev Function returning string of a token's URI\n    * @param tokenId ID of token\n    * @return string Token's URI\n    */\n    function tokenURI(uint256 tokenId) public view virtual override returns (string memory) {\n        require(\n            _exists(tokenId),\n            \"ERC721Metadata: Token does not exist\"\n        );\n\n        string memory currentBaseURI = _baseURI();\n        return\n            bytes(currentBaseURI).length > 0\n                ? string(\n                    abi.encodePacked(\n                        currentBaseURI,\n                        tokenId.toString(),\n                        baseExtension\n                    )\n                )\n                : \"\";\n    }\n\n    /// @dev Function updating minting cost - available to owner\n    /// @param _newCost The cost of minting in wei\n    function setCost(uint256 _newCost) public onlyOwner {\n        cost = _newCost;\n    }\n\n    /// @dev Function updating maximum minting amount per account - available to owner\n    /// @param _newmaxMintAmount The maximum mint amount per account\n    function setmaxMintAmount(uint256 _newmaxMintAmount) public onlyOwner {\n        maxMintAmount = _newmaxMintAmount;\n    }\n\n    /// @dev Function updating maximum token supply - available to owner\n    /// @param _newmaxSupply The maximum supply of tokens\n    /// @notice This setting exists to accommodate potential future limited-run collections\n    function setmaxSupply(uint256 _newmaxSupply) public onlyOwner {\n        maxSupply = _newmaxSupply;\n    }\n\n    /// @dev Function updating base URI extension - available to owner\n    /// @param _newBaseExtension The base extension\n    function setBaseExtension(string memory _newBaseExtension) public onlyOwner {\n        baseExtension = _newBaseExtension;\n    }\n\n    /// @dev Function setting - available to owner\n    function turnOn() public onlyOwner {\n        funSetting = STATUS.ON;\n    }\n\n    /// @dev Function setting - available to owner\n    function turnOff() public onlyOwner {\n        funSetting = STATUS.OFF;\n    }\n\n    /**\n     * @dev Burns `tokenId`. See {ERC721-_burn}.\n     *\n     * Requirements:\n     *\n     * - Function must be turned \"on\".\n     * - The caller must own `tokenId` or be an approved operator.\n     * @notice We wanted to include burn capability for a potential future application\n     * but did not want to activate functionality before all tokens were minted.\n     */\n    function burn(uint256 tokenId) public override {\n        if (funSetting == STATUS.ON) {\n            require(_isApprovedOrOwner(_msgSender(), tokenId), \"ERC721Burnable: caller is not owner nor approved\");\n            _burn(tokenId);\n        }\n        else {\n            revert(\"Burn not available\");\n        }\n    }\n\n\n    /**\n    * @dev Function checking the balance of the contract - available to owner\n    */\n    function getContractBalance() public onlyOwner view returns (uint){\n        return address(this).balance;\n    }\n\n    /**\n    * @dev Function withdrawing the balance of the contract - available to owner\n    */\n    function withdraw() public payable onlyOwner {\n        (bool success, ) = payable(msg.sender).call{\n            value: address(this).balance\n        }(\"\");\n        require(success);\n    }\n\n    /// @dev The following function overrides are required by Solidity.\n    function _beforeTokenTransfer(address from, address to, uint256 tokenId) internal whenNotPaused\n        override(ERC721, ERC721Enumerable) {\n        super._beforeTokenTransfer(from, to, tokenId);\n    }\n\n    /// @dev The following function overrides are required by Solidity.\n    function supportsInterface(bytes4 interfaceId) public view\n        override(ERC721, ERC721Enumerable) returns (bool) {\n        return super.supportsInterface(interfaceId);\n    }\n}\n",
  "sourcePath": "/Users/altair/Documents/My business/YRKI/smart contract v2/contracts/MyNFTProject.sol",
  "compiler": {
    "name": "solc",
    "version": "0.8.9+commit.e5eed63a.Emscripten.clang"
  },
  "schemaVersion": "3.4.3",
  "updatedAt": "2021-12-31T01:36:21.605Z",
  "networkType": "ethereum",
  "devdoc": {
    "kind": "dev",
    "methods": {
      "approve(address,uint256)": {
        "details": "See {IERC721-approve}."
      },
      "balanceOf(address)": {
        "details": "See {IERC721-balanceOf}."
      },
      "burn(uint256)": {
        "details": "Burns `tokenId`. See {ERC721-_burn}. Requirements: - Function must be turned \"on\". - The caller must own `tokenId` or be an approved operator."
      },
      "getApproved(uint256)": {
        "details": "See {IERC721-getApproved}."
      },
      "getContractBalance()": {
        "details": "Function checking the balance of the contract - available to owner"
      },
      "isApprovedForAll(address,address)": {
        "details": "See {IERC721-isApprovedForAll}."
      },
      "mint(uint256)": {
        "details": "Minting function - available to the public."
      },
      "name()": {
        "details": "See {IERC721Metadata-name}."
      },
      "owner()": {
        "details": "Returns the address of the current owner."
      },
      "ownerOf(uint256)": {
        "details": "See {IERC721-ownerOf}."
      },
      "pause()": {
        "details": "Security feature that pauses the contract - available to owner"
      },
      "paused()": {
        "details": "Returns true if the contract is paused, and false otherwise."
      },
      "renounceOwnership()": {
        "details": "Leaves the contract without owner. It will not be possible to call `onlyOwner` functions anymore. Can only be called by the current owner. NOTE: Renouncing ownership will leave the contract without an owner, thereby removing any functionality that is only available to the owner."
      },
      "safeTransferFrom(address,address,uint256)": {
        "details": "See {IERC721-safeTransferFrom}."
      },
      "safeTransferFrom(address,address,uint256,bytes)": {
        "details": "See {IERC721-safeTransferFrom}."
      },
      "setApprovalForAll(address,bool)": {
        "details": "See {IERC721-setApprovalForAll}."
      },
      "setBaseExtension(string)": {
        "details": "Function updating base URI extension - available to owner",
        "params": {
          "_newBaseExtension": "The base extension"
        }
      },
      "setBaseURI(string)": {
        "details": "While the initial base URI is set at compilation, this function assigns a new base URI - available to owner"
      },
      "setCost(uint256)": {
        "details": "Function updating minting cost - available to owner",
        "params": {
          "_newCost": "The cost of minting in wei"
        }
      },
      "setmaxMintAmount(uint256)": {
        "details": "Function updating maximum minting amount per account - available to owner",
        "params": {
          "_newmaxMintAmount": "The maximum mint amount per account"
        }
      },
      "setmaxSupply(uint256)": {
        "details": "Function updating maximum token supply - available to owner",
        "params": {
          "_newmaxSupply": "The maximum supply of tokens"
        }
      },
      "supportsInterface(bytes4)": {
        "details": "The following function overrides are required by Solidity."
      },
      "symbol()": {
        "details": "See {IERC721Metadata-symbol}."
      },
      "tokenByIndex(uint256)": {
        "details": "See {IERC721Enumerable-tokenByIndex}."
      },
      "tokenOfOwnerByIndex(address,uint256)": {
        "details": "See {IERC721Enumerable-tokenOfOwnerByIndex}."
      },
      "tokenURI(uint256)": {
        "details": "Function returning string of a token's URI",
        "params": {
          "tokenId": "ID of token"
        },
        "returns": {
          "_0": "string Token's URI"
        }
      },
      "totalSupply()": {
        "details": "See {IERC721Enumerable-totalSupply}."
      },
      "transferFrom(address,address,uint256)": {
        "details": "See {IERC721-transferFrom}."
      },
      "transferOwnership(address)": {
        "details": "Transfers ownership of the contract to a new account (`newOwner`). Can only be called by the current owner."
      },
      "turnOff()": {
        "details": "Function setting - available to owner"
      },
      "turnOn()": {
        "details": "Function setting - available to owner"
      },
      "unpause()": {
        "details": "Security feature that unpauses the contract - available to owner"
      },
      "walletOfOwner(address)": {
        "details": "Function returning an array of a collector's token IDs",
        "params": {
          "_owner": "The collector's address"
        },
        "returns": {
          "_0": "array Token IDs"
        }
      },
      "withdraw()": {
        "details": "Function withdrawing the balance of the contract - available to owner"
      }
    },
    "title": "MyNFTProject",
    "version": 1
  },
  "userdoc": {
    "kind": "user",
    "methods": {
      "burn(uint256)": {
        "notice": "We wanted to include burn capability for a potential future application but did not want to activate functionality before all tokens were minted."
      },
      "mint(uint256)": {
        "notice": "Creates your entertaining collectible. Requirements: - the mint amount does not exceed the allowable NFT limit per account - the contract is unpaused - the mint amount is not equal to zero - the mint amount does not exceed the max mint amount per account - the mint amount does not exceed the max supply of tokens - the minter has enough coin to mint"
      },
      "setmaxSupply(uint256)": {
        "notice": "This setting exists to accommodate potential future limited-run collections"
      }
    },
    "version": 1
  }
}